:020000040000FA
:100000000C946A000C9492000C9492000C94920050
:100010000C9492000C9492000C9492000C94920018
:100020000C9492000C9492000C9492000C94230473
:100030000C9492000C94B6020C94E8020C9492007A
:100040000C9492000C9492000C9492000C949200E8
:100050000C9492000000000200000000000000006C
:100060000504000700000000000000000000000080
:100070000000000001020408102040800102040872
:100080001020408001020408102040800102040872
:100090001020408002020202020202020404040450
:1000A0000404040403030303030303030101010124
:1000B000010101010000390036003300300000006A
:1000C0003B0038003500320000003A0037003400B1
:1000D0003100180311241FBECFE5D8E0DEBFCDBF2D
:1000E00010E0A0E6B0E0EAE7F9E002C005900D926A
:1000F000A23BB107D9F723E0A2EBB0E001C01D920B
:10010000AC34B207E1F710E0CAE6D0E004C02197B2
:10011000FE010E94B504C936D107C9F70E94140434
:100120000C94BB040C94000060E087E00E942A015C
:1001300060E085E00E942A0161E086E00E942A01D9
:1001400060E084E00E942A0180E48DB90895779BE5
:10015000FECF8FB1089526E040E855E260E070E000
:1001600086EA92E00E9453020E94940060E670E0EA
:1001700086EA92E00C948B03AF92BF92CF92DF920B
:10018000EF92FF920F931F93CF93DF9362E770E09C
:1001900086EA92E00E948B0384E00E946601892B2C
:1001A000D9F70E94A700C82FD0E092EBA92E90E0CB
:1001B000B92E8E010E541F4FC82ED12CA016B10699
:1001C00031F00E94A700F50181935F01F7CFF6019E
:1001D000EE54FF4F108261E970E086EA92E00E94DF
:1001E0008B0362EB70E086EA92E00E948B0367E982
:1001F00070E086EA92E00E947F034AE050E0BE0190
:1002000086EA92E0DF91CF911F910F91FF90EF90DE
:10021000DF90CF90BF90AF900C940104843059F0E0
:1002200028F4813099F0823089F00895853039F0D2
:10023000873041F008958FB58F778FBD08958FB5C2
:100240008F7DFBCF85B58F7D85BD089583B78F7D6D
:1002500083BF0895CF93DF9390E0FC01EC58FF4FEC
:1002600024918C569F4FFC0184918823C9F090E023
:10027000880F991FFC01E853FF4FA591B491FC0131
:10028000E254FF4FC591D49161110DC09FB7F8940E
:100290008C91209582238C938881282328839FBF6B
:1002A000DF91CF910895623051F49FB7F8943C915B
:1002B000822F809583238C93E8812E2BEFCF8FB7ED
:1002C000F894EC912E2B2C938FBFEACFCF93DF9332
:1002D000282F30E0F901EC5AFF4F8491F901EC58D6
:1002E000FF4FD491F901EC56FF4FC491CC23A1F0FC
:1002F00081110E940E01EC2FF0E0EE0FFF1FEC5475
:10030000FF4FA591B491EC91ED2381E090E009F4C9
:1003100080E0DF91CF91089580E090E0FACFFC017A
:10032000918D228D892F90E0805C9F4F821B9109D7
:100330008F7399270895FC01918D828D981731F064
:10034000828DE80FF11D858D90E008958FEF9FEF6E
:100350000895FC01918D828D981761F0A28DAE0FEA
:10036000BF2FB11D5D968C91928D9F5F9F73928F71
:1003700090E008958FEF9FEF08958EE093E0892B32
:1003800049F080E090E0892B29F00E940E03811152
:100390000C9400000895FC01A48DA80FB92FB11D85
:1003A000A35ABF4F2C91848D90E001968F739927AB
:1003B000848FA689B7892C93A089B1898C91806498
:1003C0008C93938D848D981306C00288F389E02D59
:1003D00080818F7D80830895CF93DF93EC01888D9A
:1003E0008823B9F0AA89BB89E889F9898C9185FDB0
:1003F00003C0808186FD0DC00FB607FCF7CF8C913E
:1004000085FFF2CF808185FFEDCFCE010E94CB0129
:10041000E9CFDF91CF910895EF92FF920F931F9351
:10042000CF93DF93EC0181E0888F9B8D8C8D9813A7
:1004300016C0E889F989808185FF11C0EE89FF899E
:100440006083E889F98980818064808381E090E01D
:10045000DF91CF911F910F91FF90EF900895F62EAD
:100460000B8D10E00F5F1F4F0F731127E02E8C8D47
:100470008E110CC00FB607FCFACFE889F98980818C
:1004800085FFF5CFCE010E94CB01F1CFEB8DEC0FB4
:10049000FD2FF11DE35AFF4FF0820B8FEA89FB8994
:1004A00080818062D2CFCF92DF92EF92FF921F9332
:1004B000CF93DF93EC016A017B01122FE889F98960
:1004C00082E08083C11481EED806E104F104A1F03A
:1004D00060E079E08DE390E0A70196010E9493042B
:1004E000215031094109510956954795379527956E
:1004F000211580E1380798F0E889F989108260E8D1
:1005000074E88EE190E0A70196010E9493042150C7
:100510003109410951095695479537952795EC853D
:10052000FD853083EE85FF852083188E1068EC8969
:10053000FD891083EA89FB89808180618083EA8953
:10054000FB89808188608083EA89FB89808180685B
:100550008083EA89FB8980818F7D8083DF91CF91C1
:100560001F91FF90EF90DF90CF9008951F920F9210
:100570000FB60F9211242F938F939F93EF93FF93B6
:10058000E091B602F091B7028081E091BC02F09157
:10059000BD0282FD1BC090818091BF028F5F8F736F
:1005A0002091C002821741F0E091BF02F0E0EA55CD
:1005B000FD4F958F8093BF02FF91EF919F918F9197
:1005C0002F910F900FBE0F901F9018958081F4CF40
:1005D0001F920F920FB60F9211242F933F934F93B8
:1005E0005F936F937F938F939F93AF93BF93EF939B
:1005F000FF9386EA92E00E94CB01FF91EF91BF91B9
:10060000AF919F918F917F916F915F914F913F91AA
:100610002F910F900FBE0F901F90189586EA92E0D1
:100620000E948F0121E0892B09F420E0822F089598
:10063000E6EAF2E01382128288EE93E0A0E0B0E0F6
:1006400084839583A683B78383EA90E09183808334
:1006500080E490E09587848729E230E03787268719
:100660002BE230E0318B208B2AE230E0338B228B7F
:10067000958B848B8CE290E0978B868B118E128EFB
:10068000138E148E0895AF92BF92CF92DF92EF92A5
:10069000FF920F931F93CF93DF936C017B018B012C
:1006A000040F151FEB015E01AE18BF08C017D1077C
:1006B00059F06991D601ED91FC910190F081E02D06
:1006C000C6010995892B79F7C501DF91CF911F915B
:1006D0000F91FF90EF90DF90CF90BF90AF90089573
:1006E000FB0101900020E9F73197AF01461B570B42
:1006F000DC01ED91FC910280F381E02D09946115FC
:10070000710511F00C94700390E080E008956FEA99
:1007100070E00C9470030F931F93CF93DF938C01C1
:10072000D0E0C0E06115710519F00E947003EC0182
:10073000C8010E9487038C0F9D1FDF91CF911F91ED
:100740000F9108958F929F92AF92BF92EF92FF9276
:100750000F931F93CF93DF93CDB7DEB7A1970FB65B
:10076000F894DEBF0FBECDBF7C01FA01CB0119A208
:10077000223008F42AE08E010F5D1F4F822E912C4B
:10078000B12CA12CBF01A50194010E949304F90191
:10079000CA016A300CF5605DD8016E938D01232B80
:1007A000242B252B79F790E080E0109721F0BD01F4
:1007B000C7010E947003A1960FB6F894DEBF0FBE6A
:1007C000CDBFDF91CF911F910F91FF90EF90BF9020
:1007D000AF909F908F900895695CDECF2115310511
:1007E00041F4DC01ED91FC910190F081E02D642F4A
:1007F00009940C94A2039A01AB0170E060E00C94A0
:10080000EE030F931F93CF93DF93EC010E94FB0342
:100810008C01CE010E948703800F911FDF91CF9141
:100820001F910F91089508950E946D040E94130472
:100830000E94AB00CDEBD1E00E94BC002097E1F319
:100840000E94BD01F9CF1F920F920FB60F92112493
:100850002F933F938F939F93AF93BF9380914403C4
:1008600090914503A0914603B09147033091430313
:1008700023E0230F2D3758F50196A11DB11D2093BC
:1008800043038093440390934503A0934603B0939E
:1008900047038091480390914903A0914A03B09186
:1008A0004B030196A11DB11D80934803909349030A
:1008B000A0934A03B0934B03BF91AF919F918F9147
:1008C0003F912F910F900FBE0F901F90189526E823
:1008D000230F0296A11DB11DD2CF789483B78260F9
:1008E00083BF83B7816083BF83B7806483BF83B7CF
:1008F000886083BF89B7816089BF1EBC8EB5826066
:100900008EBD8EB581608EBD8FB581608FBD85B582
:10091000846085BD85B5806485BD329A319A309AF0
:10092000379A1AB80895A1E21A2EAA1BBB1BFD0123
:100930000DC0AA1FBB1FEE1FFF1FA217B307E407BE
:10094000F50720F0A21BB30BE40BF50B661F771F16
:10095000881F991F1A9469F76095709580959095F6
:100960009B01AC01BD01CF010895EE0FFF1F059063
:10097000F491E02D0994F894FFCF536C61766520D3
:10098000496E697469616C697A656400536C61765B
:10099000652077616974696E6720666F7220737372
:1009A00020746F20676F206C6F7700526376643A13
:1009B000004C656E6774683A00000000000C02434A
:0C09C000038F01A9019B01EC010D0A004E
:107E000001C0AEC011248FE598E09EBF8DBF84B73E
:107E1000882361F0982F9A70923041F081FF02C060
:107E200097EF94BF282E80E0B6D0EAC085E08EBDE3
:107E300082E08BB988E18AB986E880BD80E189B9A2
:107E40008EE0A9D0B89A84E020E33CEF44E051E012
:107E50003DBD2CBD48BF08B602FEFDCF98B39527A7
:107E600098BBA8955F9902C0815091F78DD081345D
:107E700061F48AD0182F93D01238E9F0113811F438
:107E800088E001C083E07CD068C0823411F484E1D2
:107E900003C0853419F485E08AD05FC0853539F494
:107EA00073D0C82F71D0D82FCC0FDD1F55C08635A9
:107EB00021F484E07CD080E0E6CF843681F564D084
:107EC00063D0182F61D0D82E012F90E6E92EF12C27
:107ED0005BD0F70181937F010150D1F760D0F5E4C9
:107EE000DF1201C0FFCF40E050E063E0CE0138D0A8
:107EF0007E0180E6C82ED12CF601419151916F018F
:107F000061E0C7012DD01250F2E0EF0EF11C11110B
:107F1000F3CF40E050E065E0CE0122D01EC08437B0
:107F200071F432D031D0F82E2FD039D08E01F80133
:107F300085918F0125D0FA94F110F9CF0EC08537C5
:107F400039F42DD08EE11CD085E91AD082E09BCF88
:107F5000813511F488E01FD022D080E111D086CF86
:107F6000FC010A0167BFE895112407B600FCFDCFAC
:107F7000667029F0452B19F481E187BFE8950895D3
:107F80005D9BFECF8CB908955F9BFECF5C9901C0CD
:107F9000A8958CB1089598E191BD81BD0895F4DF55
:107FA000803219F088E0F7DFFFCF84E1E9CFCF938B
:0C7FB000C82FEADFC150E9F7CF91F1CFF4
:027FFE00000879
:00000001FF
